:020000040000fa
:080000000002040000000000f2
:020000040000fa
:040008008e03000063
:020000040000fa
:04000c008e0300005f
:020000040000fa
:040010008e0300005b
:020000040000fa
:040014008e03000057
:020000040000fa
:040018008e03000053
:020000040000fa
:04001c008e0300004f
:020000040000fa
:040020008e0300004b
:020000040000fa
:040024008e03000047
:020000040000fa
:040028008e03000043
:020000040000fa
:04002c008e0300003f
:020000040000fa
:040030008e0300003b
:020000040000fa
:040034008e03000037
:020000040000fa
:040038008e03000033
:020000040000fa
:04003c008e0300002f
:020000040000fa
:040040008e0300002b
:020000040000fa
:040044008e03000027
:020000040000fa
:040048008e03000023
:020000040000fa
:04004c008e0300001f
:020000040000fa
:040050008e0300001b
:020000040000fa
:04005400fa020000ac
:020000040000fa
:040058008e03000013
:020000040000fa
:04005c008e0300000f
:020000040000fa
:040060008e0300000b
:020000040000fa
:040064008e03000007
:020000040000fa
:040068008e03000003
:020000040000fa
:04006c008e030000ff
:020000040000fa
:040070008e030000fb
:020000040000fa
:040074008e030000f7
:020000040000fa
:040078008e030000f3
:020000040000fa
:04007c008e030000ef
:020000040000fa
:040080008e030000eb
:020000040000fa
:040084008e030000e7
:020000040000fa
:040088008e030000e3
:020000040000fa
:04008c008e030000df
:020000040000fa
:040090008e030000db
:020000040000fa
:040094008e030000d7
:020000040000fa
:040098008e030000d3
:020000040000fa
:04009c008e030000cf
:020000040000fa
:0400a0004403000015
:020000040000fa
:0400a4008e030000c7
:020000040000fa
:0400a8008e030000c3
:020000040000fa
:0400ac008e030000bf
:020000040000fa
:0400b0008e030000bb
:020000040000fa
:0400b4008e030000b7
:020000040000fa
:0400b8008e030000b3
:020000040000fa
:0400bc008e030000af
:020000040000fa
:0400c0008e030000ab
:020000040000fa
:0400c4008e030000a7
:020000040000fa
:0400c8008e030000a3
:020000040000fa
:0400cc008e0300009f
:020000040000fa
:0400d0008e0300009b
:020000040000fa
:0400d4008e03000097
:020000040000fa
:0400d8008e03000093
:020000040000fa
:0400dc008e0300008f
:020000040000fa
:0400e0008e0300008b
:020000040000fa
:0400e4008e03000087
:020000040000fa
:0400e8008e03000083
:020000040000fa
:0400ec008e0300007f
:020000040000fa
:0400f0008e0300007b
:020000040000fa
:0400f4008e03000077
:020000040000fa
:0400f8008e03000073
:020000040000fa
:0400fc008e0300006f
:020000040000fa
:040100008e0300006a
:020000040000fa
:040104008e03000066
:020000040000fa
:040108008e03000062
:020000040000fa
:04010c008e0300005e
:020000040000fa
:040110008e0300005a
:020000040000fa
:040114008e03000056
:020000040000fa
:040118008e03000052
:020000040000fa
:04011c008e0300004e
:020000040000fa
:040120008e0300004a
:020000040000fa
:040124008e03000046
:020000040000fa
:040128008e03000042
:020000040000fa
:04012c008e0300003e
:020000040000fa
:040130008e0300003a
:020000040000fa
:040134008e03000036
:020000040000fa
:040138008e03000032
:020000040000fa
:04013c008e0300002e
:020000040000fa
:040140008e0300002a
:020000040000fa
:040144008e03000026
:020000040000fa
:040148008e03000022
:020000040000fa
:04014c008e0300001e
:020000040000fa
:040150008e0300001a
:020000040000fa
:040154008e03000016
:020000040000fa
:040158008e03000012
:020000040000fa
:04015c008e0300000e
:020000040000fa
:040160008e0300000a
:020000040000fa
:040164008e03000006
:020000040000fa
:040168008e03000002
:020000040000fa
:04016c008e030000fe
:020000040000fa
:040170008e030000fa
:020000040000fa
:040174008e030000f6
:020000040000fa
:040178008e030000f2
:020000040000fa
:04017c008e030000ee
:020000040000fa
:040180008e030000ea
:020000040000fa
:040184008e030000e6
:020000040000fa
:040188008e030000e2
:020000040000fa
:04018c008e030000de
:020000040000fa
:040190008e030000da
:020000040000fa
:040194008e030000d6
:020000040000fa
:040198008e030000d2
:020000040000fa
:04019c008e030000ce
:020000040000fa
:0401a0008e030000ca
:020000040000fa
:0401a4008e030000c6
:020000040000fa
:0401a8008e030000c2
:020000040000fa
:0401ac008e030000be
:020000040000fa
:0401b0008e030000ba
:020000040000fa
:0401b4008e030000b6
:020000040000fa
:0401b8008e030000b2
:020000040000fa
:0401bc008e030000ae
:020000040000fa
:0401c0008e030000aa
:020000040000fa
:0401c4008e030000a6
:020000040000fa
:0401c8008e030000a2
:020000040000fa
:0401cc008e0300009e
:020000040000fa
:0401d0008e0300009a
:020000040000fa
:0401d4008e03000096
:020000040000fa
:0401d8008e03000092
:020000040000fa
:0401dc008e0300008e
:020000040000fa
:0401e0008e0300008a
:020000040000fa
:0401e4008e03000086
:020000040000fa
:0401e8008e03000082
:020000040000fa
:0401ec008e0300007e
:020000040000fa
:0401f0008e0300007a
:020000040000fa
:0401f4008e03000076
:020000040000fa
:0401f8008e03000072
:020000040000fa
:0401fc008e0300006e
:020000040000fa
:040200008e03000069
:020000040000fa
:040204008e03000065
:020000040000fa
:040208008e03000061
:020000040000fa
:04020c008e0300005d
:020000040000fa
:040210008e03000059
:020000040000fa
:040214008e03000055
:020000040000fa
:040218008e03000051
:020000040000fa
:04021c008e0300004d
:020000040000fa
:040220008e03000049
:020000040000fa
:040224008e03000045
:020000040000fa
:040228008e03000041
:020000040000fa
:04022c008e0300003d
:020000040000fa
:040230008e03000039
:020000040000fa
:040234008e03000035
:020000040000fa
:040238008e03000031
:020000040000fa
:04023c008e0300002d
:020000040000fa
:040240008e03000029
:020000040000fa
:040244008e03000025
:020000040000fa
:040248008e03000021
:020000040000fa
:04024c008e0300001d
:020000040000fa
:040250008e03000019
:020000040000fa
:040254008e03000015
:020000040000fa
:040258008e03000011
:020000040000fa
:04025c008e0300000d
:020000040000fa
:040260008e03000009
:020000040000fa
:040264008e03000005
:020000040000fa
:100400002f0621000eff27000e01880000000000cb
:10041000000020000000e000020032000001200087
:100420002002880014000700be0007000000e00062
:1004300003003a00203221000100200002003700b2
:100440000000200001002000810f70000100320038
:100450000f000700000020000000e0000200320052
:100460000000020000000000721202000000000004
:100470000040da000000fe00800020000000e000e4
:1004800002003200002020009001880000000600d9
:10049000a1028800800478000000eb001f003700f4
:1004a000e284440054a0b4009905ba00e2844400f8
:1004b00054a0b4009906ba00e284440054a0b400e9
:1004c0000006eb00476fde00fd07b200ae018800ba
:1004d000636ce10003003a000ad801000000eb0061
:1004e0000e003700606ce10008003a00004deb00a0
:1004f0000a05e800020039003420ec000af0a000f0
:100500008b05e900f9ff3e00040037006168e10057
:10051000010032000086eb000b00070019c7ba008b
:100520000e04e0001905ba0003003a000a00e000da
:10053000dbff3a0000000600fe07b200ae028800b2
:100540008a047800f5ff37000cd0a300e20f4d00bd
:100550001c003b0089027800354dba000a05e8000e
:10056000020039003420ec000af0a0008b05e900fd
:100570000f003200254dba000a05e80002003900dc
:100580003420ec000af0a0008b05e90008003200de
:100590000c00e0000600320015cdba000a05e800a4
:1005a000020039003420ec000af0a0008b05e900bd
:1005b0008984e80054a0b4000b00e000e2ff3a0098
:1005c000000006009902ba00055d78008b05e9007d
:1005d000f7ff3200c82ade00055d78008b05e900d0
:1005e000f3ff32000c00e000f1ff320019ddba0029
:1005f000eeff37003600f800809fbe00829fbe00ed
:10060000849fbe00869fbe003200f8003400f800d0
:1006100010002000a00188000020200000d0fe0073
:100620000200fa000168a9000500370030118000bf
:10063000004f78009e40780020002100b60507009a
:1006400010118000610060000000e000f7ff3a0038
:1006500010118000620060000000e0000100320024
:100660002222a9000080fa003400f9003200f900cb
:100670004f03be004f02be004f01be004f00be0040
:100680003600f900004006003600f800809fbe00ea
:10069000829fbe00849fbe00869fbe003200f8008d
:1006a0003400f80010002000a00188000020200085
:1006b00000d0fe000000fa0003c8a90005003700c2
:1006c000b0118000004078008040780000032100d5
:1006d0009105070090118000610060000000e000bb
:1006e000f7ff3a0090118000620060000000e00017
:1006f000010032003222a9000080fa003400f90023
:100700003200f9004f03be004f02be004f01be0091
:100710004f00be003600f900004006000040da003d
:100720000000fe00000005000001be001e000700e2
:100730000470a70003f0a10003f8a30013003a001f
:100740006509b10010003200090035006928e10098
:1007500002003500010028000000050000004000f4
:10076000818048008502e900fcff3a000000060095
:10077000f88f4200050035008100d1000080d300d1
:100780008502e800fcff3a00000006008000eb0054
:10079000000005004f89de00820178006c033700fd
:1007a0006011b8007a033700c70ade00f107b20013
:1007b000f50fb20008003200e1cf42000200320023
:1007c0000170a00024000500810f700001003200bc
:1007d0000408050044000500810f700002003a0083
:1007e000140005008502e9000000400081c04800b7
:1007f000fcff3b000170a0002400050007f8270063
:10080000078361000638e10004003a00f707200082
:10081000878361008703710001003a0003f0a200a2
:10082000889fbe008a9fbe008c9fbe00470ade00e4
:100830000480a100c71ade000580a100070028007f
:100840000785600087856100f70f20000720e10021
:100850009e0032000728e1009c003200010678006b
:100860000400e000b4003200f70720008780600039
:100870000170a0000500e000c0003200f707200072
:10088000878161000370a000050652000f003a0046
:100890000b50e1000b0032000308e10002003a00b7
:1008a0000200e1007e003200020450008384580000
:1008b000040031000001fd008101fd008402fd0003
:1008c0008a05fd006044b800210037000520e100e2
:1008d00005003d000001fd008101fd008402fd00d6
:1008e0008a05fd00050652007a60e100050035002a
:1008f0000170a1004722dd00848070008a807000b2
:10090000630037006044b800ef02660007ff2f0065
:10091000070666000500e00006003400f0831200c0
:100920008714dd000511de00071bdd0006017100e4
:100930008519de007060e1000500350009047800cb
:1009400082047800030178008001eb0070065600f5
:100950000b50e10003003a00020040008380480091
:100960000400370060041400e0841c0002005800fa
:10097000838058000188a300060032008100d10066
:100980000080d3008984d3000884d3000402e800e7
:10099000270037000178a30025003a000100e0009d
:1009a000030032008186cf00698656000a003700b6
:1009b0008c0020000000e00004003a0009007800ec
:1009c000880478000004eb00700252008086cf009b
:1009d0000d0646000c06e9007060e10006003500d7
:1009e0008000780009007800880478000004eb009b
:1009f00070065600700252000c00e0000c0034003b
:100a00008c08dd00f00316000703de00868070000e
:100a10000c00dd00074bde00060070008c4cdd0092
:100a20000743de00868474000c44dd000c02520093
:100a30006120e1002000350061016000070028000e
:100a400087816400f7ff2700878364000703740031
:100a50000300e0000600320082037300040032004d
:100a60000000e800e08048000188a3000e003a0082
:100a7000f70f20000720e1004a003d000170a100af
:100a80004722dd00810072008a8070000000be00f5
:100a90004f06be004f05be004f04be00000006001a
:100aa0006000b800faff37008100d1000080d30059
:100ab0000402e800eeff37000401780089017400a9
:100ac000a10107008a807000f1ff3700f7010700dd
:100ad000070278000001fd008101fd00f30107001d
:100ae00087027800850372000778a30004003200b3
:100af0000001fd008101fd0006020700e4ff370050
:100b0000850362000768a300080032000b50e10073
:100b100003003200f0ff2f00f1ff2700dcff370059
:100b20000001fd008101fd00d9ff37000468a3002a
:100b3000d7ff3200faff3700f8ff270088836000f4
:100b40000b003a000000e00009003a008303640053
:100b500082837300020032000200be00ccff370027
:100b60000b50e100ceff3a000200be00c8ff370084
:100b700014002000810064003eff3700f8ff2700ca
:100b80008883610004003a000200e00002003a009d
:100b90008c007800beff3700150020008301640040
:100ba00039ff370001f827000000200081007500a0
:100bb000b7ff3700889fbe008a9fbe008c9fbe0093
:100bc0001b0020000202be00058668000600280007
:100bd000060666004709de00f20fb200820032000e
:100be0000243e80080003200c729de00f30fb200a4
:100bf0007d0032000343e8007b003200f107b200c1
:100c00000170a000f507b2000570a000c708dd0064
:100c10004903de00868070004700dd00c72add0042
:100c20004923de00868272004722dd000305510061
:100c30000403500085835800030031000000400089
:100c4000818048000a05e9008c1f78008a9fbe0059
:100c500004005000858058000402420085824a004a
:100c600000004000818048000005eb000004be0049
:100c70006033b8000406be000d48e10056003100a4
:100c8000110009004dccd8000c01b8000d02b800cd
:100c90008481410060824a008283530003045c0027
:100ca00084845c0060055d000a00e00025003a00d5
:100cb000800578000d40e10049003100880078008f
:100cc00007007800110009004d88d8000c01b80019
:100cd0000d02b8008481410060824a006003110067
:100ce00083835b0004045c00e0845c000900e00096
:100cf00021003a004f01be000300e0002b0032004b
:100d0000e3016000070673008c817100010032006e
:100d1000640070004200de004e5edd000c007000da
:100d2000c258de0001e0a00083010700cf01780077
:100d3000818071004f06be004f05be004f04be000b
:100d4000000006008c8343000d044c00e0844c003e
:100d500060054d000000e9000a00e000d4ff320009
:100d60008c8343000d044c00e0844c0060054d0072
:100d70000000e900ceff37000c0343008d834b00d9
:100d800060044c00e0844c000000e9000900e00031
:100d9000d8ff32000c0343008d834b0060044c00ed
:100da000e0844c000000e900d2ff37004200de0082
:100db0004e5edd000c007000c258de0001e0a000b5
:100dc000cf0178000300e000daff3200600010007d
:100dd000e0801800d7ff3700f0ff2f00aaff370090
:100de000f0ff2f00b9ff37000404be002f010700f9
:100df000870678000004fd008104fd002b01070038
:100e0000078366000678a300030032000960a7008c
:100e10000800be002c0037000d78a300020032004d
:100e20000800be00280037000778a30026003a001b
:100e300001f0a10009f0a1000668a3000300320040
:100e4000f1ff2700f0ff2f00baff37000d68a30065
:100e5000030032000800be008c807000b5ff370030
:100e60000768a30007003a000648a3000300320009
:100e7000f1ff2700f0ff2f00aeff37000d48a30061
:100e8000030032006000b8008c807000a9ff3700ba
:100e90000748a3000400320001f8270000002000ea
:100ea0008c807000a3ff3700760107000004fd006e
:100eb0008104fd0002057800720107000802be00ef
:100ec0008a01780059ff37000160a000120220005b
:100ed0000280880097ff37000100e0001200320016
:100ee0000500e00010003200889fbe008a9fbe000f
:100ef0008c9fbe000006eb0001f8a3000300320047
:100f000060001000e08018000cf0a00005f8a300bd
:100f10000300320060021200e0821a000cf0a2000e
:100f20008005eb0041ff37006000b80002000500bb
:100f3000038368000700280007036300470ade00f8
:100f40000480a100c71ade000580a100f70f200071
:100f50000720e100420032000728e1004000320093
:100f6000889fbe008a9fbe008c1f7800f107b200e8
:100f7000f307b2000400e000640032000170a0003a
:100f80000500e000680032000370a0008505420003
:100f9000eb07b1000204b8000302b80084844400e7
:100fa00060854a00020ab800848444000a854a0029
:100fb000030ab80004054500040033000804d0000b
:100fc0008984d2000a85d2008b05e9006158e100ce
:100fd0003d003500021020000901610003082000d7
:100fe00089816100f7072000878364000886730009
:100ff000c84cde00c853dd00878474004855de000d
:101000000300e00006003200820376000400320094
:101010008904e80060054d000a88a3000c003a002e
:10102000f70f20000758e10044003d000a70a100be
:10103000c75ddd000a8575008a007300090078002d
:101040004f0678004f05be004f04be0000000600aa
:101050000a05d1008984d3008b05e800f0ff370032
:10106000881f7800060478009000070007027800c7
:101070000001fd008101fd008c000700870278005f
:10108000850372000778a300050032000001fd000f
:101090008101fd009f0007004f047800000006005a
:1010a000850372000748a30003003200f0ff2f0001
:1010b000f1ff2700f8ff37000000200001f82700ab
:1010c00088807000f4ff3700880178004848dd0010
:1010d000808171004848de00c850dd0001007000ca
:1010e000c850de00060478000b01780016000700e7
:1010f00088807000d2ff37000500e0000500320054
:10110000170020003a0007009dff370081037000a0
:10111000f9ff3a00860078004f0678004f05be00c0
:101120004f04be000000050083037100f9ff320088
:10113000270020002e00070094ff370001f8270049
:1011400086807000f4ff37000100e00026003200c6
:10115000610111007810e10023003c006022b8001a
:101160007010e10004003500800278000100780072
:101170008000eb00700151000200e0000900340023
:1011800070031100062add00822ade008603dd00de
:10119000878272000200de00860bdd00070070000f
:1011a0008208de0084817100f4ff2700048262005f
:1011b0008481710004002800848262006102600062
:1011c00005f0a6000000060004827100070032004e
:1011d0000000e800e0804800000006000002be00b9
:1011e0006000b800efff37006000b80000000600a4
:1011f000889fbe000004eb006138e10016003a0051
:101200000100e00008003a00c800de004800dd00f0
:10121000880020000100e00003003a00c800de0062
:101220004800dd00680444008184cf00e984540054
:10123000060034008908dd00f08314008703de0017
:10124000878070000900dd00090444006102140079
:101250004f04be00000006000300e00008003a0052
:10126000c811de004811dd00880020000300e00006
:1012700003003a00c811de004811dd006804440094
:101280008384cf00e9845400060034008919dd000e
:10129000f08314008713de00878171000911dd00df
:1012a00009044400e1021400e9ff37002700200090
:1012b00001f0a70017002000470bde00f60fb20078
:1012c000040032000643e8000a0032004702b3007f
:1012d0000000060001037800f607b2000603700064
:1012e00002003a000703b300000006008702b300c3
:1012f0000000060001037800f607b2000603700044
:10130000020032000770a000000006000760a00085
:10131000000006000478a300040032000578a30052
:10132000030032000168a30001003a000200be0081
:101330000160a0000000060081017000270032005b
:101340008002eb0001f8a3000300320060001000ef
:10135000e080180015002000f4072000020242007f
:1013600020003400f70320008703600006042000fb
:101370000003630002082000000161004700de0056
:10138000c909dd0000807100c708de000600e0002a
:101390000800320087037100060032001000b00020
:1013a0000180b0000188a30002003200c108de0005
:1013b0000402e800f107b200f30f20000320e1006f
:1013c00003003d004722dd00810072002900370044
:1013d00001f827000000eb00260037006000b8008d
:1013e00000000600680212007f20e10002003400c5
:1013f0006000b8001f0037006011b8007020e100e5
:101400000400350080017800010078008000eb00c6
:10141000700252000400e00009003400f0031200e2
:101420000719dd008419de000703dd0086817100e5
:101430000400de00070bdd00060070008408de00fb
:10144000f7ff2700838363008703710006002800ed
:1014500003036300070032000700e00003003a00c6
:101460006101600002817300020032001000b000d0
:101470000180b0000500a6000000060001f0a000f9
:10148000000006004f0ade004709de00f107b20047
:10149000f20fb2000b003200f207b1000170a000a1
:1014a000c708dd00c901de00838070004700dd0051
:1014b0000400a6000000060060001000e080180094
:1014c00000000600810f700001003a0000000600d5
:1014d0008182cf000500e00010003e008082cf0036
:1014e000ee8242007028e1000400390007003e004f
:1014f000800078000000eb000e00370070831200bf
:101500008600de000500dd000a003700708352000f
:101510008600dd000000eb0006003700e28252008a
:101520008508dd00708312000603de0086807000ef
:101530000500dd007507b0000501ea000400a60003
:101540000000060060001000e080180000000600a7
:10155000881f7800030478000300e00007003d00c6
:1015600060001000e080180060011900e08119009f
:1015700002003b0001f02d000300370004000700cb
:1015800008f0a70001f0a0004f047800000006005a
:10159000889fbe008a9fbe00008270000402710016
:1015a00004827100260032000004be000200be006a
:1015b0006011b8006b092000950220000182cf0065
:1015c0000a0039000541b1000082cf000700390050
:1015d0000541b1000982cf00040039000541b10086
:1015e0000882cf00010039000541b10005425200d8
:1015f000120032000a003b00828171006101640028
:101600008100d1000080d3008984d3000884d300f6
:101610008b05e8000442e800f7ff3a0007003700b6
:101620000804440089844c00000048008180480080
:101630008b05e9000442e900f9ff3a0003000700c6
:101640004f05be004f04be000000060081002000d0
:10165000618055000b003d000b00200061fe2f0053
:101660000100e1001d00340082817100610164000d
:101670008904d1000884d3000000e800faff3a0092
:10168000710020006100640003007000020060002f
:101690000900320061044400e0844c000988a50080
:1016a000050032008b05e8006808e10002003a00fe
:1016b0008904d1000884d300f20f20000258e10011
:1016c00005003d00c75ddd00f907b20089807500a7
:1016d00008007800000006000bf827008b00780057
:0416e0000000050001
:020000040000fa
:1016e4004c440000310000004c4400003200000073
:020000040000fa
:1016f4000c00fa00889fbe0040079800510798002c
:10170400de009000800c2000808f50000200340026
:10171400800c20005007980010002000000f780073
:101724000000eb00100798005e009000e20f5000ec
:10173400060034001e0078004300dd00000f78002e
:101744001e0090000000e800100798005e00900062
:10175400ea0f5000060034001e0078004300dd004c
:10176400000f78001e0090000000e80010079800a9
:10177400de00900020032000808f5000060034001b
:101784001e0078004200dd00000f78001e0090006b
:101794000000e800100798009e007800803e2000ba
:1017a4008088b9008000eb00fcfb07000001be004c
:1017b4000044250091c82400fdfc07000004be007d
:1017c4005e009000cf80de00f1fb07000001be0048
:1017d4000800be00d5fd07002007980031079800d7
:1017e4004e009000e10f500003003200e20f500061
:1017f400150032002800370005e1a9001e00900002
:1018040000407800634060000080fb0063006000db
:101814004400dd0022088000f1fc2f0081006100fb
:1018240001007000200888002e009000be00900087
:10183400bcfb070000007800100888000021ef00be
:1018440005e1a8001400370011e1a9001e00900072
:1018540000407800634060000080fb00630060008b
:101864004400dd0082088000f1fc2f00810061004b
:1018740001007000800888002e009000be009000d7
:10188400a8fb070000007800600888000621ef002c
:1018940011e1a800000000004f04be000080fa001f
:1018a400000006000200fa00000f78001e00780015
:1018b400e10f500003003200e20f50000800320034
:1018c4000f00370000000000004080006800600046
:1018d4000000e000fcff32000068a90008003700a7
:1018e400000000000140800000082000008060002b
:1018f4000000e000fbff320000e8a9000000000047
:101904000080fa00000006000400fa00000f7800ce
:10191400110798009e0090001e00780074ff0700d5
:101924001e007800dfff07001e007800e10f500062
:1019340002003a0005e1a900040037001e00780007
:10194400e20f500001003a0011e1a9000080fa0002
:10195400000006000400fa00100798000000eb00e5
:10196400000f78001e009000e10f500003003200c9
:10197400e20f50000f0032001e00370000408000cc
:10198400680060000000e000030032001000200046
:10199400000f7800170037000000000000408000ae
:1019a400680060000000e000fcff32000068a9004d
:1019b4001000370001408000000820000080600013
:1019c4000000e0000300320010002000000f780047
:1019d40008003700000000000140800000082000db
:1019e400008060000000e000fbff320000e8a90076
:1019f400000000001e0078000080fa0000000600cd
:101a04000800fa0020079800310798000f003700fb
:101a14003e009000810c2000810f50000100340032
:101a2400800c2000000f78009e0078002e009000ab
:101a34002fff07002e009000c6ff07001007980034
:101a44003e0090001e005000300798003e009000b9
:101a54000000e000eeff3c000080fa0000000600f9
:101a64000c00fa00889fbe004007980051079800b8
:101a7400de009000800c2000808f500002003400b3
:101a8400800c20005007980010002000000f780000
:101a94000000eb00100798005e009000e20f500079
:101aa400060034001e0078004300dd00000f7800bb
:101ab4001e0090000000e800100798005e009000ef
:101ac400ea0f5000060034001e0078004300dd00d9
:101ad400000f78001e0090000000e8001007980036
:101ae400de00900020032000808f500006003400a8
:101af4001e0078004200dd00000f78001e009000f8
:101b04000000e800100798009e007800803e200046
:101b14008088b9008000eb0020fb07000001be00b4
:101b24000044250091c8240021fc07000004be00e5
:101b34005e009000cf80de0015fb07000001be00b0
:101b44000800be00f9fc0700200798003107980040
:101b54004e009000e10f500003003200e20f5000ed
:101b6400150032002800370005e1a9001e0090008e
:101b740000407800634060000080fb006300600068
:101b84004400dd0022088000f1fc2f008100610088
:101b940001007000200888002e009000be00900014
:101ba400e0fa070000007800100888000021ef0028
:101bb40005e1a8001400370011e1a9001e009000ff
:101bc40000407800634060000080fb006300600018
:101bd4004400dd0082088000f1fc2f0081006100d8
:101be40001007000800888002e009000be00900064
:101bf400ccfa070000007800600888000621ef0096
:101c040011e1a800000000004f04be000080fa00ab
:101c1400000006000200fa00000f78001e007800a1
:101c2400e10f500003003200e20f500003003200c5
:101c34000400370005e1a8000200370011e1a80004
:101c4400000000000080fa00000006000200fa0014
:101c5400000f78001e007800e10f500003003200ee
:101c6400e20f5000030032000400370005e1a90030
:101c74000200370011e1a900000000000080fa0012
:101c8400000006000800fa001007980021079800d9
:101c9400320798001e0090008000eb0001089800b5
:101ca4001e0090008000eb00110898001e009000b8
:101cb4008000eb00210898001e009000ae00900008
:101cc400410898001e0090003e01900032089800e0
:101cd4000000eb00000f7800080037009e00900021
:101ce4001e0178006d0041000000400000804000ab
:101cf4008000eb00010878001e0fe8003e00900011
:101d04009e007800808f5000f4ff35000080fa00b8
:101d1400000006000400fa00000f78002147980034
:101d24001e00780020089000f00f500002003a00d6
:101d34000000eb001a0037001e0078001008900025
:101d44009e00780000804000ae409000014878007a
:101d54001e007800100890008000e800f0002800c1
:101d6400008060000000e00004003d000000e90085
:101d740001ff2f00008070000000e8008000780060
:101d84001e007800110898001e00780020089000ba
:101d94008000e8001e007800210898001000200050
:101da4000080fa00000006000400fa00000f78002a
:101db400110798001e007800200890000000e00041
:101dc40002003a000000eb001b0037001e00780000
:101dd400000890009e007800008040009040780049
:101de4001e009000014878001e0078000008900052
:101df4008000e800f0002800008060000000e0009f
:101e040004003d000000e90001ff2f000080700085
:101e14000000e800800078001e00780001089800a7
:101e24001e007800200890008000e9001e00780061
:101e340021089800100020000080fa00000006002d
:101e44000400fa00000f7800110798001e007800c3
:101e5400a00890001e009000808f500002003c00fb
:101e64000080eb00100037001e007800800890000e
:101e74001e00900080804000f00028000080600078
:101e84000000e00004003d000000e90001ff2f0015
:101e9400008070000000e8009e0078000080400090
:101ea400104078000000fb000080fa0000000600eb
:101eb4000200fa00004f78000000000011118000b9
:101ec40000202000008060000000e000fbff3a00da
:101ed4001e00fb00201188000080fa0000000600ac
:101ee4001800fa00300f98000000eb00000f780093
:101ef400610037000000eb00100798005000370025
:101f04000000eb0020079800030037002e0090002b
:101f14000000e800200798003e089000c0089000e8
:101f24001e009000000040000080400090007800f7
:101f34002e00900000804000104078000004e00073
:101f4400f2ff3a000000eb00300798001000200078
:101f54004007980016003700be0090003e0890002d
:101f6400b7ff0700800078003e0890004009900009
:101f74001e009000000040000000410010017800a5
:101f84003e00900000004100104078000000fb007b
:101f9400808f5000030032000000eb0040079800df
:101fa400070037003e0090000000e800300798006a
:101fb400be0090002e009000808f5000e6ff350098
:101fc4004e0090000000e0001a0032000000eb0018
:101fd40050079800090037005e009000ec004700ad
:101fe40000804000800078003e0890006eff0700eb
:101ff4005e0090000000e80050079800de009000aa
:102004002e009000808f5000f3ff3500be08900032
:102014001e0090006d004000000040000080400061
:10202400110020000108780010002000000f780043
:10203400080037001e0090000000e8001007980018
:102044003e089000b00890001e009000808f500061
:10205400abff3c001e0078000000e00004003a00e2
:102064006c004700800078003e0890004eff070097
:102074000000eb00000f78003e089000200890005c
:10208400e20f50009bff3c000080fa0000000600b5
:102094000000fa0021e3a9001f6ea8002043a90054
:1020a40001198000f0f12f00008060000019880001
:1020b4002143a80001198000f0cf2f0000806000a8
:1020c400001988004119800000fe2f000080600084
:1020d400b000b3004019880080c0b30024e3b70007
:1020e40021e3a8000080fa00000006000000fa00c6
:1020f40021e3a9001e4ea8002043a9000119800075
:10210400000e200001007000001988002143a8007f
:1021140001198000f0cf2f000080600000198800b2
:102124004119800000fe2f00008060000010a00014
:102134004019880021198000f00f2e0000806000f3
:1021440000c0a0002019880080c0b30024e3b700b9
:1021540021e3a8000080fa00000006000000fa0055
:1021640021e3a9001e4ea8001f6ea8002043a8006a
:1021740001198000000e2000010070000019880081
:102184002143a80001198000f0cf2f0000806000d7
:102194000019880011198000f0cf2f000080600022
:1021a400101988002343a8001119800030f82f006b
:1021b400008060000020a000101988002119800010
:1021c400f00f2e000080600000c0a00020198800dd
:1021d40080c0b30024e3b7003023ef003043a800ed
:1021e4003163a80021e3a8000080fa000000060083
:1021f4000000fa002003a9002023a800a100200069
:1022040010002000c0fd07002023a90000000000ea
:1022140000198000610060000000e000fcff320053
:10222400001880000080fa00000006000000fa0098
:102234002003a9002023a800a100200010002000f2
:10224400b1fd07000000000000198000610060007b
:102254000000e000fcff3200001880000080fa005b
:10226400000006000400fa00000f7800110798002f
:102274000000000000198000610060000000e00020
:10228400fcff3200011880001e007800010878006d
:10229400111880001e009000010878000080fa00e8
:1022a400000006001000fa00889fbe006007980036
:1022b400710798006e019000fe0190006e0090007e
:1022c400fe00900019fb0700008fbe006e01900015
:1022d400fe0190001e0078009e00900013fb070092
:1022e40020079800310798006e019000fe019000cd
:1022f4002e009000be0090000cfb070040079800e1
:102304005107980042e12a00730924006e009000ee
:10231400fe00900005fb07000001be00f0282c0021
:102324005101240034f907000004be0052b82e0005
:10233400130824001e0078009e009000fbfa07009a
:102344000001be000800be0034f907000004be000e
:10235400d2cc2c00c3fc23002e009000be009000c1
:10236400f2fa07000001be000800be0022f90700cf
:102374000004be00f2282c0053e723004e00900016
:10238400de009000e9fa07000001be000800be006c
:1023940022f907004f04be000080fa000000060086
:1023a4000200fa00004f78001e407800e14f500010
:1023b4001b003a0021e2a9000134800000fc2f0038
:1023c400008060000000a0000034880021368000f6
:1023d40000f82f0080806000b0042000010070002d
:1023e4002036880021e2a9002002a8000111800003
:1023f40090ff2f00008060000011880020a2a90037
:102404002062a900301d2000401188002168a80026
:102414000168a90021e2a8002342a8001c0037009b
:102424001e407800e24f500019003a0031e2a90042
:102434000134800000fc2f00008060003000b300f5
:10244400003488003136800000f82f00808060005e
:10245400b004200001007000303688003002a8006b
:102464008111800090ff2f0000806000801188009f
:1024740030a2a9003062a900301d2000c0118800dc
:102484002168a8000168a90031e2a8003342a8002d
:102494000080fa00000006000200fa00004f7800f5
:1024a400114798001e407800e14f500004003a00a4
:1024b4001e4090000000fb00201188000600370039
:1024c4001e407800e24f500003003a001e40900086
:1024d4000000fb00a01188000080fa000000060044
:1024e400ca00fa0010c0b300adff07006e00470039
:1024f40022002000e1052100e2fd0700a0062000e3
:102504000e00400022002000e1052100ddfd07004f
:10251400c00320000e00400022002000e10521003d
:10252400d8fd0700800920000e0040002200200092
:10253400e1052100d3fd07000000000007ff0700ac
:102544000000eb0030a798000000eb0040a79800c3
:102554000000eb00000f7800090037000094210010
:102564001100200028000700810c20008e8040000c
:10257400600c20000e0040003aff07001e0fe80028
:10258400300620009e007800808f5000f3ff340056
:102594003ea090008000eb0080f8070002002f00ae
:1025a400f357240082f90700323323003305240053
:1025b4005efa070010079800210798004ea09000cb
:1025c4008000eb0075f8070002002f00f357240089
:1025d40077f90700323323003305240053fa070048
:1025e4000001be008df807003007980041079800ed
:1025f4001e009000ae0090002aff070050079800cc
:0826040061079800cdff3700cb
:020000040000fa
:10260c00f03fb1000180b10006003500ee03090077
:10261c0000000000403fb1000180b100fbff3d0015
:10262c001000b000203fb00002003500008009000f
:08263c00000000000000060090
:020000040000fa
:102644005e1000000400000082000000728b76001f
:102654008b000000021000005c00000080000000fd
:1026640000100000020000008000000000000000d4
:00000001FF
